:020000040000FA
:1000000018F09FE518F09FE518F09FE518F09FE5C0
:1000100008F01FE50000A0E110F09FE510F09FE55B
:10002000AC6E010004000000080000000C0000009D
:10003000746E01001C000000000000EB400000EBAB
:100040002C008FE2000C90E800A08AE000B08BE06A
:1000500001704AE20B005AE10000001A380000EB80
:100060000F00BAE818E04FE2010013E303F0471075
:1000700013FF2FE1C0950100E095010001C08FE260
:100080001CFF2FE18A18037801305C07640F01D14F
:10009000047801301D1101D105780130013C05D0F3
:1000A000067801300E700131013CF9D11E0706D4EB
:1000B0002E1C0ED0013E8C55FCD1491909E0047864
:1000C00001300C1B0135267801340E700131013DE1
:1000D000F9D59142D7D370470030B0E30040B0E388
:1000E0000050B0E30060B0E3102052E27800A12895
:1000F000FCFFFF8A822EB0E13000A128003081454C
:100100001EFF2FE17847C046640051E35C58000AA7
:100110000000B0E31EFF2FE101C08FE21CFF2FE1C2
:100120001FB5059886460FBC009C02B070470000C2
:1001300001C08FE21CFF2FE130B47546AE4630BCE3
:1001400070470000D45A00EB0210A0E1F1FFFFEB72
:100150001CC09FE50FC08CE001001CE30DE08F1276
:100160000FE0A0011CFF2FE101C08FE21CFF2FE177
:1001700016F0C4FDE51100007847C04603002DE9E4
:10018000EAFFFFEB0300BDE8160200EB00B585B007
:1001900001216A46117401000EC9C06802936B46C2
:1001A00006C303903B48694604F0D4FA05B008BC86
:1001B000184700B585B002216A46117403C86B4622
:1001C00003C33448694604F0C5FAEFE788B004F089
:1001D00027FD31480021006804F056FB02252F4816
:1001E0006C0200902E4B012200192EA10295019461
:1001F00003F038FE2E482F4B0090022200192EA14A
:100200000295019403F02EFE05F02EFF2D4805F017
:1002100065FF2D4805F065FF1E4B1E48C83B0A22AE
:10022000142104F087FA294C012000F072FA1948D1
:1002300003A903F075FF6846007FC1070BD0400893
:10024000400069460877069803A900900EC920A0CF
:1002500006F009FBE8E78107E6D5FD21084069467D
:100260000877049801280AD028A203990020C30027
:10027000E35A8B4205D1C0000019416805E026A26F
:10028000F3E7401CDB28F2D325A12DA006F0EBFA02
:10029000CAE70000FC0A00A0B00000A0EC0100A02A
:1002A000594B0000555342485F5461736B00000086
:1002B000100600A0FD4B0000555342485F69737261
:1002C000000000008D010000B3010000DC7001009F
:1002D0004D6F7573653A207852656C3A2025642C11
:1002E000207952656C3A2025642C20576865656C2E
:1002F00052656C3A2025642C20427574746F6E53DD
:10030000746174653A2025640000000072656C65B4
:10031000617365640000000070726573736564004A
:100320005265736572766564206F7220756E6B6EB0
:100330006F776E20636F64652020202020200000EE
:100340004B6579626F6172643A20202573202D20FD
:10035000257300007CB50400FEA000680E00072C89
:1003600001903ED8042C02D309206946087116F08A
:10037000F7FDF94D0123687819006A46401C687042
:1003800001A800F0BAFB6878401E0006000E6870F5
:1003900001D116F0F1FD042C02D3241F2406240EF3
:1003A0000120002E20D0022E23D0610088406A4612
:1003B00011788143117068460178417116F0D0FDC3
:1003C000687800231A00401C6870022101A800F020
:1003D00094FB6878401E0006000E687001D116F08C
:1003E000CBFD7CBC08BC1847610088406946097891
:1003F0000AE0610088406946097802000A4203D099
:10040000814368460170D6E7084369460870D2E721
:10041000D24810B441680122120511434160D0480E
:10042000026801210A4302608161CE48C16830221E
:100430009143C160C16820221143C160CA490022B2
:10044000CA6002234B6103231B038B61CA61C64B45
:10045000032440331C6101246402DC6009234B60E7
:10046000016803041943016041683C23194341605A
:10047000BE498C6809231B041C438C604B60BC493B
:100480000C23CB6038230B6082620168B94BBA4AF7
:100490001940FF31013111430160C168B74B01229E
:1004A000920219408918B64A1143C1600169B54BDF
:1004B000B54A19400C3111430161416A0F221206FD
:1004C00005235B069143C91841620D21C16210BC2E
:1004D0007047A74900228860AC4800E0521C4B6876
:1004E0001B0601D48242F9D3824203D30820C8609C
:1004F000382008607047F3B59C4C0F000126F604C5
:1005000081B0E660F510E5600020FFF7E2FF01989A
:100510000006000EFFF7DDFF65606660E560380AE3
:10052000FFF7D7FF3806000EFFF7D3FF6560E660E0
:10053000E5600020FFF7CDFF2220FFF7CAFF6560CE
:10054000FEBC08BC184770B501210020FFF7D3FF9F
:10055000142000F001FA8E490320FFF7CCFF04219C
:100560000C20FFF7C8FF6121C9000D20FFF7C3FF72
:10057000032109030E20FFF7BEFF322000F0ECF943
:10058000AF211E20FFF7B7FF82490120FFF7B3FF1D
:10059000032149020220FFF7AEFF00211020FFF7E0
:1005A000AAFF7D490720FFF7A6FF39210B20FFF79F
:1005B000A2FF00210F20FFF79EFF322000F0CCF9B0
:1005C00076493020FFF797FF8124A40021003120D5
:1005D000FFF791FF21003220FFF78DFF704D332090
:1005E0002900FFF788FF691D3420FFF784FF2100F1
:1005F0003520FFF780FF21003620FFF77CFF290020
:100600003720FFF778FF644C3A20CF342100FFF702
:1006100072FF21003B20FFF76EFF00212320FFF730
:100620006AFF00212420FFF766FF00214820FFF722
:1006300062FFFF24403421004920FFF75CFF0021C6
:100640004A20FFF758FF00214B20FFF754FF0021FD
:100650004120FFF750FF00214220FFF74CFFEF251C
:100660002D0229004420FFF746FF00214520FFF717
:1006700042FF21004620FFF73EFF322000F06CF9D8
:1006800029004420FFF737FF00214520FFF733FF03
:1006900000214E20FFF72FFF00214F20FFF72BFFF7
:1006A00021004620FFF727FF70BC08BC184710B593
:1006B00002F0F3FD3B4804F079F910BC08BC184780
:1006C0003948C16B394A2748914201D1384900E085
:1006D00038498160C16809090901491DC160704735
:1006E000010010B5152000F0E1FA152000F081FBA3
:1006F0000F21152000F06AFBDFE710B500F089FA42
:10070000DBE70006000E002124E60006000E0121B2
:1007100020E60006000E02211CE638B5002002F09B
:100720000DFF0400002002F01BFF400004430020E6
:1007300002F028FF8000204302F045FD1E48002102
:100740000090B823F022080002F04DFD1A483C3812
:100750009A2333E008000000A40000A0C0C01FE0FE
:1007600040C0FF3F00C002E0008001E0008002E0E6
:10077000000002E0FF00F0FF00540500FF0000F061
:1007800000555505000030F0FFFF4F0188130000B1
:10079000A4A200003F2B0000330200000707000066
:1007A0000205000034BB04A0C00FE0FF00200239A6
:1007B0000511155005011550360F0000FF2200905D
:1007C00041320021012002F00EFD7448082100F0A2
:1007D000E0F8734D2860FFF71BFE002000F0C9F819
:1007E000704CA06940084000A0616F4820606F48CD
:1007F00060606F48A0600021E160E1612C20A06191
:100800006C4A0800401C0006000E02C28028F9D382
:1008100069488163142000F09FF828682061A0696E
:1008200066490843A061322000F096F8FFF78BFE7E
:10083000642000F09EF862480168020411430160E0
:1008400041683C22114341605E48826801210905EC
:100850000A43826041605C483921C16038210160EF
:100860005A495B480A2204F03DF8594804F048F818
:1008700038BC08BC184710B5012902D003290CD197
:1008800002E0FFF74AFF08E050680521C90148432C
:1008900043490A6843498018086100200DE710B5F4
:1008A0003E48082100F075F83D4C0023206049497E
:1008B00049481A0002F0ACFBFF21F0224131002030
:1008C00003F0DAF80521F022C901002003F0BAF89C
:1008D0002168002003F09EF8EFE6010010B5162015
:1008E00000F0E4F9162000F084FA0221162000F04E
:1008F0006DFAE2E63048C038416842061143416073
:100900003648426B19210A434263836B0A009A43BB
:10091000FBD12B48016805221206114301602949C9
:100920008B680122920313438B60CA6041681522D1
:10093000920611434160C168294A1143C1602048B1
:100940004030C1681B22D2029143C160C1680922B4
:1009500012031143C1607047002181B00091322120
:100960004843009901E0491C00918842FBDC01B03A
:1009700070476421081A03210903484310B5642114
:1009800016F0C2F91749C8611649022040310861C2
:1009900093E6491E4018884370470000140B00A0DE
:1009A000000000A00000E1FF3801091B3F05010223
:1009B0000B38EF000002E1FF80C11FE001080000DA
:1009C00000C002E0008002E0000002E0AF0600008C
:1009D00034BB04A0B4770100C0770100C0CFE0FFB2
:1009E00010000050008001E009C08FE21CFF2FE1E1
:1009F00070470020C0437047FEE708B5694608709D
:100A0000684615F01DFC01B008BC184710B410BCB6
:100A10000248034A0349044B704700006C5B85A001
:100A20006C5C85A00004004000000040124810B536
:100A30000068000702D5002004F019FB10BC08BCB8
:100A40001847012110B50D48C90306F05AF80121D5
:100A50000B48890306F077F80020C04305F0FBFE41
:100A6000084805F0F0FEFFF745FF074806F0D0FD07
:100A70000648FFF732FFE1E7C0C11FE048BB04A012
:100A80000000D07F0180080000C0E0FF2D0A0000B8
:100A900010B5040000F0F3F806280DD0002808D1A6
:100AA00000F0E5F8182809D0282807D0F828F7D052
:100AB000032010BC08BC18472000EBE70020F8E733
:100AC00030B4754A002304250824002804D00128E6
:100AD00006D0022807D00DE010682843106000E01F
:100AE0009561946106E01068000702D5906808706F
:100AF00000E0052330BC18007047FFB5664D1E00AE
:100B0000286881B020273843286000F0B0F8082812
:100B100004D0102802D0F82801D105E000202021BF
:100B2000A961040019D102E00820A861EDE7C02006
:100B3000FFF7AEFF040010D100270BE0019800780A
:100B4000FFF7A6FF040008D10198401C7F1C3F045A
:100B50003F0C019002988742F0D3002E38D02868CD
:100B6000202420432860082709E0102802D0F82814
:100B700005D000E00020AC61040006D00BE0AF61BE
:100B800000F075F80828F5D0EFE7C12000F077F8FD
:100B900004000628F9D000F06AF8402803D0F828AD
:100BA000F9D0032414E0002C12D101270EE000F04C
:100BB0005EF840281AD0482818D0502816D0F828B7
:100BC000F5D0370003247F1C3F043F0CB742EED919
:100BD00028681021084328600820A8612868C006FA
:100BE000FCD4200005B0F0BC08BC18470399B742FC
:100BF00001D1012000E00020FFF762FF03990220ED
:100C0000FFF75EFF04000528F8D00398401C03900E
:100C1000D9E70EB521A207CA6B4607C31E48016873
:100C2000490621D420494A680F239B059A434A600C
:100C30004A6805239B051A434A606C21816141691A
:100C4000090C0904FF31613141610169090C090492
:100C5000F0310161016840221143016000231A0054
:100C600009216846FFF749FF03B008BC18470A4846
:100C700001680907FCD540680006000E7047064968
:100C800002000B6800201B0703D58A6008228A61D6
:100C9000704706207047000000C001E012978000F6
:100CA000400000000000000000C002E070B50C0031
:100CB000050016F055F9B94AA8001558145003F06C
:100CC0007FFA280070BC08BC1847B54910B5012050
:100CD000086003F085F910BC08BC184738B4B14867
:100CE00001210160B04A5368CC0223435360AF4AEC
:100CF00005231B071361AE4B5361AE4BD361936168
:100D00001362AD4B53620163032242630523836385
:100D1000C163A44A4032136051609360D360136191
:100D2000516191618162A549A54B5960A54919603E
:100D3000A54A00210091009C641C94420094FAD3BF
:100D4000FF2484340462A14C0091009D6D1CA542D7
:100D50000095FAD3FF240434046202244462009113
:100D6000009D6D1C95420095FAD31C254562832594
:100D70000562974D2D680095016218680125ED0404
:100D80002843186000910098401C90420090FAD3CC
:100D90009048446084601F22C260026142610F2358
:100DA000836181250560446284620824C462026311
:100DB0004463836380220262FF20F5300091491C66
:100DC00081420091FBD338BC7047704770B50D006D
:100DD000040016F0C5F8804AA00014582B0721091A
:100DE00009011B0F1943115003F0EAF92007000F06
:100DF00068E710B5040016F0B3F801207749A04069
:100E0000086103F0DDF966E7F8B516F0A9F80027E8
:100E1000FF433D036F610026281106603400002166
:100E20002000FFF743FF641C202CF8DBEF61EE602D
:100E30005D484168022211434160594841684908B0
:100E40004900416001210160C660654A8261032258
:100E50004261866042680A43426062490420FFF7AB
:100E600025FF0420FFF7C5FF0F210420FFF7AEFF89
:100E700003F0A6F9F8BC08BC1847FEE7484A916899
:100E8000594800681368DB0701D09168401CE122D3
:100E9000D20150434018704710B51C2115F034FFA3
:100EA00019E710B503F0E0F815E7F8B5FF26F643AB
:100EB00035684E4C2078401C207016F05DF8002DEF
:100EC00002D016F049F803E0012000900028FDD17F
:100ED00016F046F80020306016F042F8207801281D
:100EE00006D143490978002902D016F007F8C1E776
:100EF000401E2070BEE710B5040016F031F8012046
:100F00003649A040486103F05BF9E4E610B500F013
:100F10000CF825480021C0380160052141600121FD
:100F20000160FFF7DBFE0120D5E61F4870B44038B2
:100F30008168AA225523890105D50168022421432D
:100F40000160C260C36000210160C260C3601649D5
:100F5000C0310C6A1025AC430C620C6A20252C436E
:100F60000C62114C01254034E5600B264660C260DE
:100F7000C3600560C260C36085686D01FCD504254F
:100F800065600525A5600B4CE4438C62CC620321AF
:100F90000160C260C36070BC7047000000F1FFFFD9
:100FA000004000E00080E0FFC0C01FE000C002E0A1
:100FB000150101555555555555555550020200001E
:100FC0000081E0FF88540000881300001027000013
:100FD000001001A00082E0FF00F2FFFF00F0FFFF21
:100FE0007F700000CB0C0000A00000A0A40000A0B7
:100FF000A80000A046498860464A002000E0401C46
:101000004B681B0601D49042F9D3904203D3392098
:10101000C8603820086088680006000E7047F8B580
:101020003D4D01242405EC60D320FFF7E3FF0020B1
:10103000FFF7E0FF06020020FFF7DCFF3043C008A7
:1010400000906C60EC60B320FFF7D4FF0020FFF746
:10105000D1FF06020020FFF7CDFF3043C6086C60C9
:10106000EC60C320FFF7C6FF0020FFF7C3FF0702B5
:101070000020FFF7BFFF3843C1086C600098484369
:10108000801B310015F040FE002806D0234988421D
:1010900003D20120F8BC08BC18470020FAE77047CB
:1010A000704770B5FFF7BBFF012804D00020C04394
:1010B00070BC08BC1847184D01242405EC60D320EF
:1010C000FFF798FF0020FFF795FF06020020FFF7CB
:1010D00091FF3043C0106C60EAE770B5FFF79FFFE7
:1010E000012802D00020C043E2E70B4D0124240573
:1010F000EC609320FFF77EFF0020FFF77BFF0602E6
:101100000020FFF777FF3043C0106C60D0E700008D
:10111000000002E088130000008002E0409C000014
:10112000012110B50448C90501F0A0FD802001F09F
:10113000A3FD10BC08BC1847483B05A0F7B5170035
:10114000050001240A2600E074430198210015F0EF
:10115000DBFDB04201D3012000E0002039007F1EFA
:10116000012901DD012100E000210843ECD10198B3
:10117000210015F0C9FD01006143019A3030511A78
:10118000019128706D1C3100200015F0BDFD040098
:10119000EDD128702800FEBC08BC184730B52E4899
:1011A00085B000686D467D21C90015F063FB0C0019
:1011B000010000222800FFF7C1FF3A210170401C06
:1011C00021000322FFF7BAFF2021017000214170A6
:1011D000684600F035F82148006802F0D2FF002888
:1011E00004D000F02DF81EA000F02AF805B030BCA5
:1011F00008BC184706F000FBFEE710B5040006F037
:10120000FBFAFFF7CBFF200000F01AF815A000F062
:1012100017F806F0FBFA10BC08BC184710B504001C
:1012200006F0EAFAFFF7BAFF0FA000F009F8200075
:1012300000F006F80BA000F003F806F0E7FAEAE782
:1012400010B504002078641C0028E4D00B4915F088
:10125000E4F8F7E7DFE70000A00000A0B00000A07E
:10126000202D20000A0000002A2A2A205761726ED1
:10127000696E67202A2A2A2000000000040000A0CE
:101280001F480068704710B503F023FA10BC08BC73
:10129000184710B5012003F01CFAF7E710B51948FC
:1012A00003F097FAF2E710B5164803F0D0FAEDE72D
:1012B00010B5144803F0A7FAE8E713480068704730
:1012C000114810B5006811490860012002F0FCFEC9
:1012D000DCE70E4810B501680029D7D0012002F0E4
:1012E000D1FED3E710B5012101F019FFCEE710B50B
:1012F000074802F0B1FEC9E7704770477047000029
:10130000A00000A0483B85A0B00000A0080000A0FD
:10131000E512000010B5040007480178491C01706F
:101320000021417015F028FE04480470017800295E
:10133000FCD110BC08BC1847A40000A0A90000A064
:101340000EB515F00DFE0F484178491C417003F0B1
:101350004CF9FFF759FDFFF7D0F90020FFF7D1F95D
:1013600002220948D10202926A4603C2074B0B4887
:10137000642207A102F076FD15F0C4FD03B008BC9D
:1013800018470000A40000A0583B85A0CD01000034
:101390004D61696E5461736B00000000584B85A06D
:1013A00002040106920E0002C90EC00E520151182D
:1013B000C00208187047014870470000FFFF000096
:1013C00030B48068456904694D43A21A0168521E11
:1013D000A81840000B5230BC7047806803699A1A05
:1013E0004369521E4B43006899184900405A7047A0
:1013F000F8B5040080680D0001691600891A426979
:10140000491E6A43006851184900475A206980689C
:1014100015F04CFB4740A068426901696A43891B8B
:10142000491E0068511849004752F8BC08BC1847CB
:10143000F8B50500FF485B1C007C0C001600C007D7
:10144000009321D09C421CDAA8684269016962437A
:10145000891B491E006851184900475A286980684D
:1014600015F024FB4740A868426901696243891B63
:10147000491E00685118490047520098641C844274
:10148000E2DBF8BC08BC1847EB489C4200680068E7
:10149000F7DA0204120CAB68596918696143801BC2
:1014A000401E1B68081840001A520098641C8442B1
:1014B000F1DBF8BC08BC1847F8B50600DD480D00A4
:1014C000007C1400C00723D05B1C9C4200931CDAF4
:1014D000B068426901696A43091B491E00685118D6
:1014E0004900475A3069806815F0E0FA4740B06813
:1014F000426901696A43091B491E00685118490085
:1015000047520098641C8442E2DBF8BC08BC1847D0
:10151000C9480168B068096802694669141BD21A93
:101520007610521E6E435308641E0068A41AF31806
:101530009B00641CD207C518002A06D028680A043C
:101540000004000C024304C5641E0B045B18102C3D
:101550000CD3281D2B6003226B604360836008302E
:10156000521EFAD12035103C102CF2D2022C03D39B
:10157000A41E08C5022CFBD2002CC6D02868090482
:10158000000C0004090C01432960F8BC08BC184792
:10159000FFB55B1C81B00A9F06000C001D0099423C
:1015A00008DA039A3B0021003000FFF785FF641C36
:1015B000AC42F6DB05B0F0BC08BC1847FFB5ADB0D7
:1015C0003AA937A82E9A22C941C851187200299207
:1015D00072009219B40004282A9128927ED009DC66
:1015E000012812D002287AD100201F9036980028B6
:1015F00075DD03E2082800D1ADE310286FD13A98D9
:1016000030991F9088426ADAFDE33A98309A400791
:10161000400F821830923A9890421F905FDA1F99DB
:101620002E984718C810399940181C9036981D906C
:101630001F981E902D9880681B9000692F99401A62
:10164000401E18902D980069806815F02FFA03004D
:101650001B9841691898794308181A901B980168DB
:101660001A984000081819902868696884461E98DE
:101670004207520F8020D0406E4A127C9207920F90
:1016800006D0012A7ED0022A7DD0032A7CD1D5E063
:101690001D9A042A79DB1C9B0A001B78034200D1A7
:1016A0006246199B1A801C9A9719199A921E1992D0
:1016B0003B780A00034200D16246199BBF191A8089
:1016C000199A921E19923B780A00034200D1624691
:1016D000199BBF191A80199A921E01E062E289E1F2
:1016E00019923B780A00034200D16246199B1A8086
:1016F000BA191C92199A921E19921D9A121F1D92C4
:1017000017925242D3179B0F9A1892102792524267
:10171000171E01DC1D9A75E01C9A1692199A1592F3
:101720001C9A299B92191492199A921E13921C9A30
:101730000E979A181292199A289B121F11921C9AAE
:101740009A181092199A921F0F92149A109B177858
:10175000129A1B7812780D97149F0C92129AE7191F
:10176000A2181292109A14971F00169BA21810929A
:101770001B780A00034200D16246159B1A800D9B1C
:101780000A0003E05AE06FE0C0E03EE0034200D10F
:101790006246139B1A800C9B0A00034200D16246EA
:1017A000119B1A800A003B00034200D162460F9B46
:1017B0001A80169AA2181692159A083A1592139A38
:1017C000083A1392119A083A11920F9A083A0F9216
:1017D0000E9A521E0E92B8D1279A1C9B72439219F0
:1017E000B21A9200D2181C92179AD3179B0F9F1807
:1017F000199BBA10D2009A1A19921D9BBA0892002E
:101800009A1A1D92042A00DB45E7002A7ED01C9B11
:101810000A001B78034200D16246199B1A801C9A69
:1018200092191C92199A921E19921D9A521E1D927B
:10183000EDD1D8E0884D85A0840100A01C990978DD
:10184000014206D01B991A9A096852008F5A5F40CC
:101850008F521C9989191C911A99491E1A911D9928
:10186000491E1D91EAD1BEE01D9A042A7EDB0A04BE
:10187000120C94461C9A1278024202D0199B6246BE
:101880001A801C9A9719199A3B78921E034201D02C
:1018900063461380BF193B78921E034201D0634612
:1018A0001380BF193B78921E034201D06346138018
:1018B000921E19921D9ABB19121F1D920B92524231
:1018C0001C93D3179B0F9A18921026925242171E00
:1018D00001DC1D9A70E01C9A299B0A92199A0992C0
:1018E0001C9A92190892199A921E07921C9A0297B2
:1018F0009A180692199A121F0592289B1C9A9A18F8
:101900000492199A921F0392089A00E06BE01778EC
:10191000069A049B12781B7801970092069A089FFA
:10192000A2180692049AE719A21804920A9A089734
:1019300012781F00024202D0099B62461A80019A67
:10194000024202D0079B62461A80009A024202D0ED
:10195000059B62461A803A00024202D0039B62460F
:101960001A800A9AA2180A92099A00E027E0083A17
:101970000992079A083A0792059A083A0592039A3B
:10198000083A0392029A521E0292BDD1269A1C9BDB
:1019900072439219B21A9200D2181C920B9AD31762
:1019A0009B0F9F18199BBA10D2009A1A19921D9B6F
:1019B000BA0892009A1A1D92042A00DB5AE7002AFC
:1019C00011D00A04120C1C990978014201D019990E
:1019D0000A801C9989191C911999891E19911D99C0
:1019E000491E1D91EFD11F983099401C88421F90CD
:1019F00000DA14E631B0F0BC08BC18471F992F98E4
:101A00000C1839982A991D9030988C461E90FE49E2
:101A10001D98097C02783A988907890F1C9204D096
:101A2000022959D1002D7ED057E0002D2DD0032161
:101A3000091A49000622531AC022DA401C9B1A4098
:101A4000CA4091006B586246511C8C462D991B93DD
:101A5000896813000F694A698E4619004A433F1B83
:101A60007F1ED21971461B9B09685200401C042836
:101A70008B5205D11D990020491C1D9109781C919C
:101A80001E99491E1E91D2D17EE00321091A4900F8
:101A90000622521AC023D3401C9A1340CB40624600
:101AA000511C8C462D99401C89680F698E464969E6
:101AB0003F1B4A437F1ED219714609685200042811
:101AC0008B5205D11D990020491C1D9109781C914C
:101AD0001E99491E1E91D8D156E00321091A4A00C9
:101AE00006218B1AC021D9401C9B1940D1400FD030
:101AF00089006A582D99634689680F698E4649693D
:101B00003F1B59437F1E73461B68C91949005A522F
:101B10006146491C401C04288C4607D11D990020B1
:101B2000491C1D9100E006E009781C911E99491E90
:101B30001E91D2D128E00321091A49000622531A26
:101B4000C022DA401C9B1A40CA400DD02D99634632
:101B500089680F698E4649693F1B59437F1E73464A
:101B60001B68C91949005A526146491C401C042887
:101B70008C4605D11D990020491C1D9109781C91A6
:101B80001E99491E1E91D6D13998369980193990DF
:101B90001F98401C88421F9000DA2FE731B0F0BC3C
:101BA00008BC184700201F9036980028F6DD2F99B2
:101BB0001F98441839982A991D9030988C461E9089
:101BC00091491D98097C02783A988907890F1C92DF
:101BD00004D0022959D1002D7ED057E0002D2DD000
:101BE0000121091A89000422531AF022DA401C9BB1
:101BF0001A40CA4091006B586246511C8C462D9980
:101C00001B93896813000F694A698E4619004A437D
:101C10003F1B7F1ED21971461B9B09685200401C56
:101C200002288B5205D11D990020491C1D9109786D
:101C30001C911E99491E1E91D2D17EE00121091AE4
:101C400089000422521AF023D3401C9A1340CB403F
:101C50006246511C8C462D99401C89680F698E463E
:101C600049693F1B4A437F1ED219714609685200D9
:101C700002288B5205D11D990020491C1D9109781D
:101C80001C911E99491E1E91D8D156E00121091AB6
:101C90008A0004218B1AF021D9401C9B1940D140A5
:101CA0000FD089006A582D99634689680F698E465E
:101CB00049693F1B59437F1E73461B68C919490078
:101CC0005A526146491C401C02288C4607D11D9976
:101CD0000020491C1D9100E006E009781C911E9926
:101CE000491E1E91D2D128E00121091A890004223F
:101CF000531AF022DA401C9B1A40CA400DD02D998D
:101D0000634689680F698E4649693F1B59437F1EA8
:101D100073461B68C91949005A526146491C401C48
:101D200002288C4605D11D990020491C1D91097877
:101D30001C911E99491E1E91D6D139983699801949
:101D400039901F98401C88421F9000DA2FE731B06D
:101D5000F0BC08BC184700201F9030980028F6DD22
:101D60001F992E981F9A4118399880181D903698FF
:101D7000002D1E907ED02D982F9B806847690269A8
:101D80004F43D21A521EB918006849001E4A401823
:101D90001C90107C8007800F05D002286AD11E9805
:101DA000042868DBAAE01E9804287EDB1D981C9995
:101DB00000788000285808801D9881190A781C989E
:101DC00089199200AA58801E02800A78801E8919FB
:101DD0009200AA5802800A78801E89199200AA5897
:101DE0000280801E1CAA03C21E98001F1E901B901A
:101DF0004042C117890F081880104242002A2590DE
:101E000004DC1E9864E036E1884D85A01D991C987D
:101E10001A9189191991811E1891299B1D99159262
:101E200059181791011F1691289B1D9959188C4616
:101E3000811F199A63461778179A1B78BE46199F17
:101E40001278E71919971492179A1393A2181792F8
:101E50006246A21894461A9A774612789200AA58B7
:101E60000280BA00AA58189B1A80149A169B9200F6
:101E7000AA5801E0B0E0DFE01A80139B08389A000E
:101E8000AA580A801A9A0839A2181A92189A083A77
:101E90001892169A083A1692159A521E1592C8D19F
:101EA000259870438019301A00E014E081001D98D5
:101EB0001C9A08181D901B98C117890F08188110CB
:101EC000C900511A1C9181081E988900401A1E9061
:101ED000042800DB6AE700287ED01D981C99007852
:101EE0008000285808801D9880191D901C98801E1D
:101EF0001C901E98401E1E90EFD1B1E01D980078F6
:101F0000002803D0800028581C9908801D9881194A
:101F10001C980A78801E002A02D09200AA580280DB
:101F200089190A78801E002A02D09200AA580280DD
:101F300089190A78801E002A02D09200AA580280CD
:101F40008919801E1CAA03C21E98001F1E901290A1
:101F50004042C117890F081880104242002A24907D
:101F600001DC1E9865E01D991C981191891910914A
:101F7000811E0F91299B1D99944659180E91011F9E
:101F80000D91289B1D995918831F0C93109A0B785B
:101F900017780E9A611812780B97109F0A920E9A72
:101FA000E719A2180E92119A109712781F00002AB2
:101FB00002D09200AA5802800B9A002A03D0920005
:101FC000AA580F9B1A800A9A002A03D09200AA5896
:101FD0000D9B1A80002F00E042E003D0BA00AA58FF
:101FE0000C9B1A80119A0838A21811920F9A083A7D
:101FF0000F920D9A083A0D920C9A083A0C9262468A
:10200000521E9446C2D124981D9970438019301AEB
:10201000800040181D9012981C9AC117890F08184B
:102020008110C900511A1C9181081E988900401A1C
:102030001E90042800DB61E7002811D01D9800786D
:10204000002803D0800028581C9908801D9880190A
:102050001D901C98801E1C901E98401E1E90EDD155
:102060001F983099401C88421F9000DA78E631B002
:10207000F0BC08BC18471F992E9842181F982F993A
:102080004300399818181D90369873101E902D989B
:1020900080681B934469036954430568581A401EBD
:1020A0002018400028181C901E9804287EDB1B98DE
:1020B0001B99800023901B98430018184000229021
:1020C0001B98C000490021911D991C9A0C881D9DE8
:1020D000219B14805B191C88219D911EEB180C809C
:1020E0001988219D121F1180EB181988941E121F48
:1020F0001C92219A21801E99D218091F1E911A91B3
:1021000049421D92CA17920F5118891020914942D5
:10211000002901DC1E995AE01D9B219C1993E318AC
:102120001893239D1D9B1C9AEB181793131F16934E
:10213000229D1D9B941EEB181593931F8C461493A0
:1021400018990B8817990D8815990F8818994118B7
:1021500018911799BE46411817911599169F411865
:102160001591199909882B97149F2C97199FC719B6
:102170001997118023802B9917000D802C9A714696
:1021800011801699083F0839169114993A000839B8
:102190001491083C6146491E8C46D1D1209A1B9966
:1021A0004A435218891A1D9AC90000E012E08918A2
:1021B0001D911A991C9BCA17920F51188A10D200B0
:1021C0009A1A1C921E9A89088900511A1E91042994
:1021D00000DB79E71E9800280DD01B9842001D985F
:1021E000038811181C981D91811E03801E981C9154
:1021F000401E1E90F3D11F983099401C88421F90BA
:1022000000DA38E731B0F0BC08BC184730B514002C
:10221000002283B0130001AD0CC582681369926877
:1022200002919A1A121B01928069032101AAFEF7FA
:1022300022FB03B030BC08BC1847806800220A802B
:102240004A80C268521E8A800069401EC88070475A
:1022500080680F291CD202A35B5CDB189F4400003E
:1022600018080A0C0E181810121416161614160058
:102270004068704780687047C06870470069704761
:10228000AB4870471020704700207047012070470E
:102290000020C0437047012901D1A64870470020A3
:1022A000704738B5040000200090A0680D00002899
:1022B00003D1282000F0CCFAA060002806D00560E9
:1022C0000095A06902216A46FEF7D5FA38BC08BC21
:1022D000184770B5040080680E001500002803D16F
:1022E000282000F0B5FAA060002802D00561C66081
:1022F000456170BC08BC184770B50E00040015009D
:10230000002182B00A00684606C0A068002803D1F8
:10231000282000F09DFAA06000280CD04169002917
:1023200000D145614660856000960195A06907214E
:102330006A46FEF7A0FA02B070BC08BC184770B538
:102340000D0004001600002182B00A00684606C095
:10235000A068002803D1282000F07AFAA0600028A5
:1023600008D0183060C0684660C0A06908216A467D
:10237000FEF781FA02B070BC08BC184770B50400C3
:1023800080680D001600002803D1282000F060FAB4
:10239000A060002803D081692960C069306070BCEA
:1023A00008BC184738B5040000200090A0680D0054
:1023B000002803D1282000F04BFAA060002806D0A6
:1023C00005620095A0690A216A46FEF754FA38BCF6
:1023D00008BC184738B5040000200090A0680D0024
:1023E000002803D1282000F033FAA060002806D08E
:1023F00045620095A06909216A46FEF73CFA38BC9F
:1024000008BC184770B504008068002803D1282054
:1024100000F01EFAA0600125002800D00025A06968
:1024200000220121FEF727FA284370BC08BC184798
:102430000020704710B5806900220521FEF71BFAC5
:1024400010BC08BC184710B5806900220621FEF7B1
:1024500012FA10BC08BC184730B51500002283B032
:10246000130001AC0CC46B461972019580690421FC
:1024700001AAFEF700FA03B030BC08BC184708B543
:10248000009180690B216A46FEF7F5F901B008BC9E
:10249000184708B5009180690C216A46FEF7EBF9F0
:1024A00001B008BC184730B51500002283B01300F6
:1024B00001AC0CC401AC22C480690D2101AAFEF755
:1024C000DAF903B030BC08BC184716292DD202A394
:1024D0005B5CDB189F44000029291511132917297B
:1024E000290B0D0F191B1D1F2129292325271248F0
:1024F0007047124870471248704712487047124898
:102500007047124870471248704712487047124887
:102510007047124870471248704712487047124877
:1025200070471248704712487047002070470000FB
:10253000D2040000BC780100A3220000D3220000D6
:10254000F92200003F2300007D230000A5230000A6
:10255000D5230000052400003124000035240000AC
:1025600047240000592400007F2400009324000029
:10257000A7240000F8B504000D00FF4E2818B2692A
:10258000716A8918491E884206D80168002903D15A
:1025900041680C1900F009FC706A85420CD92800CA
:1025A0004038C06B2F1A3868002805D178680419A4
:1025B000380000F0FAFB3D00F04A0F20C1005358EC
:1025C000A34208D989184039896BA14201D8401E1D
:1025D00001E0801EF2D5C0008118486800222B005F
:1025E0002D6114C3A86028194038C46348680835B1
:1025F000091D002800D045602B0005C30D6030691F
:1026000000193061F8BC08BC1847DB480078002886
:102610007ED1F0B5DA488BB00568002D00D1FEE719
:10262000017D002975D0016984680831200014F00B
:102630006BFBD149801CC861C000221A8D6228182A
:102640008A6148620520C0028442029500D82000B9
:10265000039080080026019040080A9001A811C844
:1026600000281AD0241F0025C00705D0300014F020
:10267000F9FC6060241D01250A9F002F0DD0A819C8
:10268000099014F0EFFC60600998401C14F0EAFC1B
:10269000A0600834AD1C7F1EF1D101A821C8002420
:1026A00000280BD901CD07063F0EA01914F0DAFC63
:1026B000B8422ED10198641C8442F3D3761C022EBA
:1026C000CCD303980026400808900190400807905A
:1026D00001A811C800281AD0A41E0025C00705D0E3
:1026E000300014F0BFFC6080A41C0125079F002F60
:1026F0000DD0A819069014F0B5FC60800698401C17
:1027000014F0B0FCA080241DAD1C7F1EF1D101E0AF
:1027100092E05EE001A821C8002400280CD9288896
:10272000AD1C07063F0EA01914F09CFCB84250D116
:102730000198641C8442F2D3761C022EC8D30398FD
:10274000002601904008059001A811C800281AD061
:10275000641E0025C00705D0300014F083FC6070B3
:10276000641C0125059F002F0DD0A819049014F0BA
:1027700079FC60700498401C14F074FCA070A41CD8
:10278000AD1C7F1EF1D101A821C8002400280AD960
:102790002F786D1CA01914F065FCB84219D101986E
:1027A000641C8442F4D3761C022ECDD302A803C845
:1027B00000290ED0401EC90702D000214170401CE4
:1027C0000899002905D0002242708270801C491EA1
:1027D000FAD1694B01261E70DD69012D12D0996A6C
:1027E0000020091F6A1ED40702D08E600831012024
:1027F000520807D0441C8C60841C0C611031801C72
:10280000521EF7D16D1E5F4900200822DE6210249F
:102810005D61250085408D60451C2600AE400E613F
:102820001031801C521EF4D1596A9869FFF7A2FE3C
:102830000BB0F0BC08BC18477047083800687047F8
:102840004D4A116B0029016000D048601063704749
:10285000F8B50400FFF7D9FE484FE41CA508386816
:10286000AD002D1DA84200D905004348006B0200B1
:1028700007D001004039C96BA94203D00068002885
:10288000F7D1002006000FD03068002801D0716811
:1028900041607068002801D0316801603649B24259
:1028A00049D13068086346E000F0A4FA00240F2103
:1028B000C8003A58AA4208D9C0194038806BA842CB
:1028C00001D8491E01E0891EF2D5102917D2C8008F
:1028D000C019406800280ED084686068A8420ED2F3
:1028E000A068002804D084686068A842F8D303E098
:1028F0006068A84200D20024491C1029E7D3002CAC
:1029000019D06068A84201DA002614E00019461BBD
:10291000361D200000F049FA17488169491B816182
:10292000016A4919016260682100401BFFF722FE1D
:1029300030004038C5633000F8BC08BC1847002898
:1029400074D0F0B5040085B005F08EFEFFF75DFE93
:102950000A490868A04202D8E41CA00880000C3094
:10296000049000200F22054BD1005C58049DAC421E
:1029700011D9C918403907E00C0000A07C4B85A094
:10298000400000A0744B85A0896BA94201D8521E5B
:1029900001E0921EE7D5102A18D2FF4BD000C018D4
:1029A000406800280FD080684468AC420ED281682D
:1029B000002904D088684168A942F8D303E041683F
:1029C000A94200D20020521C102AE7D3002803900D
:1029D0005ED1F248C2688168114353D10121009150
:1029E00000210191416A826902918E18761E029837
:1029F00021C800281BD102984419B44217D20020E4
:102A00000090E64A210082C9926AC9008918601BB9
:102A100048603A00210013F0D5FDE419B442F0D328
:102A20000198401901900298761B03E070E002982B
:102A300040190290B042DAD3009800281FD130002C
:102A40003F38C06B301A401C0168002903D1406830
:102A5000019940180190D04B00200200C100C91814
:102A6000801C4A601028CA60F8DBCC480261416AC9
:102A7000806908180199411A0198FFF77BFD0098B9
:102A8000002801D000253CE00398002800D168E729
:102A9000C24E7069002801D100250AE0401E706115
:102AA000F56AB06AEA00121852680121EB00F2627E
:102AB000C154039844680498211AB74800680C3040
:102AC000814200D20494039800F06FF9B26A03982F
:102AD000E9008918486003980560039904984860E4
:102AE0000399002088600398006103A805C8801836
:102AF00001004038C2630498844202DD201AFFF7C7
:102B000039FD05F0A5FD280005B0F0BC08BC18474C
:102B10007047002805D0A149C000896A4018406864
:102B2000083070479D49CA68521C0028CA6004D00A
:102B3000896AC00040184068083070479749C868E3
:102B4000002801D0401EC8600020704710B5FFF774
:102B50005CFD9248006910BC08BC0C38184710B5E1
:102B6000FFF753FD8D48406910BC08BC184710B5ED
:102B7000FFF74BFD89488169006910BC08BC081A41
:102B8000184710B5FFF741FD8448C169406910BC82
:102B900008BC081A184770B50025FFF736FD7E48B7
:102BA0000F21CA0012185268002A06D0C90008185E
:102BB0004068816800290FD002E0491EF1D50BE082
:102BC0004C68AC4200D925008868002801D0816893
:102BD00000E000210029F3D1280070BC08BC0C38AB
:102BE000184770B505F040FD0025FFF70EFD6A4857
:102BF0000F21CA0012185268002A06D0C90008180E
:102C00004068816800290FD002E0491EF1D50BE031
:102C10004C68AC4200D925008868002801D0816842
:102C200000E000210029F3D1280001215B4C0C3881
:102C30008905884205D914F0F3F960680C00444313
:102C400004E06168484314F0FDF90C0005F000FD54
:102C5000200070BC08BC184750498868401C886038
:102C600070474E498868401E886070474C4A9160A2
:102C70001060012010757047494908610020C86044
:102C80000120087570470021002806D04349C00084
:102C9000896A4018406841680C390800704700286C
:102CA0001DD070B5050005F0DFFC3C4EEC00B06AAD
:102CB000015D00290ED0201841684868FFF75AFCD2
:102CC0007069401C7061B06AF16A2218516000217D
:102CD0000155F56205F0BCFC70BC08BC1847704794
:102CE000F8B5070005F0C0FC3C68002C18D005F0D2
:102CF000BBFC2A4EE500B06A415D00290ED02818C1
:102D000041684868FFF736FC7069401C7061B06A22
:102D1000F16A2A18516000214155F46205F098FCCF
:102D20000020386005F094FCF8BC08BC1847F3B5E7
:102D300081B00298002400282CDD0198A1000F1812
:102D400005F092FC3D68002D1CD005F08DFC134968
:102D5000EE00886A825D002A12D030184168486807
:102D6000FFF708FC0D480D494069401C4861080008
:102D7000C16A806A32185160002181550748C562D6
:102D800005F066FC0020386005F062FC0298641CC7
:102D90008442D2DB03B005E07C4B85A00C0000A090
:102DA000400000A0F0BC08BC184770B43D4C43681C
:102DB0000F21CA00A5589D4208D91219403A956BB7
:102DC0009D4201D8491E01E0891EF2D5364AC9004C
:102DD0001569EB1A13610A198168C068121D002970
:102DE00000D04860002802D0016070BC70471160BC
:102DF00070BC7047F0B5012083B0009000200190B6
:102E00002948416A826902918E18761E029821C86B
:102E100000281AD102984419B44216D2002000901A
:102E2000214A210082C9926AC9008918601B486042
:102E30003A00210013F0C6FBE419B442F0D3019824
:102E4000401901900298761B02E002984019029006
:102E5000B042DBD3009800281ED130003F38C06B51
:102E6000301A401C0168002903D1416801980818F4
:102E700001900C4B00200200C100C918801C4A6060
:102E80001028CA60F8DB08480261416A80690918A5
:102E90000198091AFFF76EFB009803B0F0BC08BC5C
:102EA000184700007C4B85A00C0000A010280CDA0D
:102EB0008F4A80008018C06C002806D0C268126853
:102EC0008A4203D000680028F8D1002070471028FB
:102ED00001DB00207047864980004018C06C002844
:102EE000F8D0C16809680029F4D000680028F8D13A
:102EF000704710B5FFF7A4FC10BC08BC1847F8B524
:102F000005000F0016001C00102B04DA1C20FFF730
:102F10009FFC002803D1F8BC08BC00201847002FF4
:102F200001D007610EE0724AA1008918C96C00291E
:102F300008D00A68002A03D011001268002AFBD1C9
:102F40000969016184610021868201604160C56078
:102F50008160F8BC08BC184781698A00644951182F
:102F6000CA6C824201D10268CA644168002901D05A
:102F700002680A600168002901D042684A600021A5
:102F800001604160704710B4002831D08169102978
:102F90002EDA8A0056495418E16C002901D1E06408
:102FA00033E04A68002A05D011005268002AFBD19C
:102FB00000291DD0C2681368CA6812689A4203DDEE
:102FC00009680029F8D113E0002911D0CA681268F5
:102FD0009A4210D1828A012A0DD10A68002A05D0AE
:102FE0001100D26812689A42F7DA04E0002902D18F
:102FF00010BC012070474A68002A03D010604A685C
:10300000426000E0E0644860016010BC002070474E
:10301000FFB5374E0F001D000024102B81B004DADD
:103020001C20FFF715FC002801D1200019E0002F1B
:1030300001D007610DE0A9008919C96C002908D0E9
:103040000A68002A03D011001268002AFBD109691E
:103050000161856103998182019904604460846003
:10306000C160002808D08169102905DA89008C190F
:10307000E16C002904D1E06405B0F0BC08BC18473D
:103080004A68002A05D011005268002AFBD10029A5
:10309000F2D0C2681368CA6812689A4206DD0968ED
:1030A0000029F8D105B0F0BC08BC18470029F9D0B8
:1030B000CA6812689A420DD1828A012A0AD10A6826
:1030C000002A05D01100D26812689A42F7DA01E0AE
:1030D0000029E7D04A68002A03D010604A6842609D
:1030E00000E0E0644860016005B0F0BC08BC18472F
:1030F000884D85A02F49002288688A6070472D4935
:103100008A68002A00D1886070472A490B684A689B
:10311000934203D0002093428860FCD17047254B36
:103120005A6803C224481968083A824201D12348E8
:1031300001E010000830002901D0884200D00200D0
:103140005A60704710B5002405F08EFA194B1A68C2
:10315000586882420BD01000174C03C8A24201D11C
:10316000164A00E008321A6005F0B0FB012405F0B1
:103170006FFA200010BC08BC184770B504000D00A1
:1031800005F0A4FB002811D10A4A5068010030C1A3
:1031900009491368884201D1503901E00100083122
:1031A000002B01D0994200D00800506070BC08BCD0
:1031B00018470000580000A04C4C85A0FC4B85A08F
:1031C0009349486070479249886170479048006908
:1031D00070478F48406970478E49002008604860FA
:1031E0008860C8607047FFB5060089480C00806998
:1031F00089491D004207487C83B00C9F07D400F02A
:103200000DF900908448407C00F01AF906E000F0C7
:1032100017F900908048407C00F000F9009A0021E6
:10322000521E002E00D0421EE81B133026280192A9
:1032300004D90598201A1330262804D807B0F0BC0A
:1032400008BC01201847781B0700091B4843059953
:10325000091B029113F00EFB6E494019F6008851CC
:1032600001993800091B4843029913F003FB69498F
:1032700040197118486066480121C16107B0F0BC6F
:1032800008BC00201847634B10B4C0001C58C0187D
:103290000C604068106010BC7047F8B55C4F5D4D25
:1032A000F86900280DD1786805220100104000223D
:1032B0002A6049076A60890FAA600120EA60F86104
:1032C00006E0280003C8884202DA7962386203E027
:1032D0002868786268683862E968A868884202DA13
:1032E000F962B86201E0B962F8623878002807D163
:1032F000FDF7F3FE7861FDF7D3FE3878401C83E0DC
:10330000FDF7CFFE3861FDF7CAFE396A3869884299
:1033100009DB796A884206DCBA6A7969914202DB84
:10332000FA6A914205DD0020C043B8600100F860F0
:1033300067E02A68B969384E841A4807707C02D45D
:1033400000F06CF801E000F07BF8324D401E604365
:103350002A686968891A13F08DFA04007869A968E7
:10336000451AB8694007707C02D400F069F801E0A2
:1033700000F054F8401E45432648083003C8091A97
:10338000280013F077FA0500B8694007707C12D462
:1033900000F044F80090707C00F052F8B969CA0758
:1033A00002D0009A141B641E890702D5421B521ECC
:1033B00015E02A0013E000F043F80090707C00F064
:1033C0002DF8B969CA0703D0009A121B521E00E0FB
:1033D0002200890702D5441B641E00E02C00601CFB
:1033E00009D0501C07D0BB68581C04D0F868411C99
:1033F00001D0010002E00021C9430B00BC601800AD
:10340000FA6005F0C5F900203870F8BC08BC184710
:10341000640000A0544C85A0884D85A010B5002400
:10342000102809DAFFF753FD002805D0C1688A6A21
:10343000012113F03DFB0400200010BC08BC18471C
:1034400010B50024102809DAFFF741FD002805D047
:10345000C1688A6A022113F02BFB0400200010BC13
:1034600008BC184710B50024102809DAFFF72FFD13
:10347000002805D0C1688A6A032113F019FB0400F3
:10348000200010BC08BC184710B50024102809DA29
:10349000FFF71DFD002805D0C1688A6A042113F0DA
:1034A00007FB0400200010BC08BC184710B500241E
:1034B000102809DAFFF70BFD002805D0C1688A6AD9
:1034C000082113F0F5FA0400200010BC08BC1847CE
:1034D00010B50024102809DAFFF7F9FC002805D000
:1034E000C1688A6A092113F0E3FA0400200010BCC5
:1034F00008BC184710B50024102809DAFFF7E7FCCC
:10350000002805D0C1688A6A0A2113F0D1FA0400A4
:10351000200010BC08BC184710B50024102809DA98
:10352000FFF7D5FC002805D0C1688A6A0B2113F08B
:10353000BFFA0400200010BC08BC184710B50024D6
:10354000102809DAFFF7C3FC002805D0C1688A6A91
:103550000C2113F0ADFA0400200010BC08BC184781
:1035600010B50024102809DAFFF7B1FC002805D0B7
:10357000C1688A6A0D2113F09BFA0400200010BC78
:1035800008BC184710B50024102809DAFFF79FFC83
:10359000002805D0C1688A6A0E2113F089FA040058
:1035A000200010BC08BC1847F84810B5407C002427
:1035B000102809DAFFF78BFC002805D0C1688A6A59
:1035C000012113F075FA0400200010BC08BC184754
:1035D000EE4810B5407C0024102809DAFFF777FC8C
:1035E000002805D0C1688A6A022113F061FA04003C
:1035F000200010BC08BC1847E44810B5407C0024EB
:10360000102809DAFFF763FC002805D0C1688A6A30
:10361000032113F04DFA0400200010BC08BC184729
:10362000DA4810B5407C0024102809DAFFF74FFC77
:10363000002805D0C1688A6A042113F039FA040011
:10364000200010BC08BC1847D04810B5407C0024AE
:10365000102809DAFFF73BFC002805D0C1688A6A08
:10366000082113F025FA0400200010BC08BC1847FC
:10367000C64810B5407C0024102809DAFFF727FC63
:10368000002805D0C1688A6A092113F011FA0400E4
:10369000200010BC08BC1847BC4810B5407C002472
:1036A000102809DAFFF713FC002805D0C1688A6AE0
:1036B0000A2113F0FDF90400200010BC08BC1847D3
:1036C000B24810B5407C0024102809DAFFF7FFFB50
:1036D000002805D0C1688A6A0B2113F0E9F90400BB
:1036E000200010BC08BC1847A84810B5407C002436
:1036F000102809DAFFF7EBFB002805D0C1688A6AB9
:103700000C2113F0D5F90400200010BC08BC1847A8
:103710009E4810B5407C0024102809DAFFF7D7FB3B
:10372000002805D0C1688A6A0D2113F0C1F9040090
:10373000200010BC08BC1847944810B5407C0024F9
:10374000102809DAFFF7C3FB002805D0C1688A6A90
:103750000E2113F0ADF90400200010BC08BC18477E
:1037600010B5FFF7B4FB002804D0C168CA6A022173
:1037700013F09EF910BC08BC1847844810B5407C73
:10378000FFF7A5FB002804D0C168CA6A022113F024
:103790008FF910BC08BC184710B5FFF798FB00283C
:1037A00001D00069406810BC08BC18477749800008
:1037B0004018C06C00694068704710B5FFF787FB80
:1037C000002801D00069006810BC08BC18476F4988
:1037D00080004018C06C00690068704770B5002612
:1037E0000F240025102C0ADA2000FFF770FB0028B8
:1037F00005D0C1688A6A012113F05AF90500AE426A
:1038000000DA2E00641EECD5300070BC08BC1847EE
:1038100070B500260F240025102C0ADA2000FFF7CF
:1038200056FB002805D0C1688A6A022113F040F9CE
:103830000500AE4200DA2E00641EECD5300070BCEC
:1038400008BC184770B500260F240025102C0ADA92
:103850002000FFF73CFB002805D0C1688A6A0321DD
:1038600013F026F90500AE4200DA2E00641EECD5F6
:10387000300070BC08BC184770B500260F24002526
:10388000102C0ADA2000FFF722FB002805D0C168BF
:103890008A6A042113F00CF90500AE4200DA2E000A
:1038A000641EECD5300070BC08BC184770B500260B
:1038B0000F240025102C0ADA2000FFF708FB00284F
:1038C00005D0C1688A6A082113F0F2F80500AE42FB
:1038D00000DA2E00641EECD5300070BC08BC18471E
:1038E00001000020002902D0480801D101207047C2
:1038F000880801D102207047C80801D10320704711
:10390000080901D104207047480901D105207047FA
:10391000080A01D108207047480A01D109207047E0
:10392000080B01D10C207047C80B01D10F20704744
:10393000080C01D110207047880C01D1122070476B
:10394000080E01D118207047202070470022110076
:10395000002832D0410801D101212EE0810801D197
:1039600002212AE0C10801D1032126E0010901D189
:10397000042122E0410901D105211EE0010A01D103
:1039800008211AE0410A03D1092116E0884D85A0DB
:10399000010B01D10C2110E0C10B01D10F210CE072
:1039A000010C01D1102108E0810C01D1122104E0A9
:1039B000000E01D1182100E02021012901D10122AE
:1039C0000EE0881E062801D8082209E00800093800
:1039D000072801D8102203E011390F2900D820222E
:1039E0001000704770B50E000125FFF770FA040053
:1039F0000CD0E0680221426A200013F059F802005E
:103A000004D03100200013F053F80025280070BCCA
:103A100008BC184770B50E000125FFF758FA0400DE
:103A20000CD0E0680921426A200013F041F802003E
:103A300004D03100200013F03BF80025280070BCB2
:103A400008BC1847F8B50E0017000125FFF73FFA2C
:103A500004000DD0E0680A21426A200013F028F823
:103A6000030005D03A003100200013F022F80025B1
:103A70002800F8BC08BC1847F8B50E00170001254F
:103A8000FFF725FA04000DD0E0680B21426A200000
:103A900013F00EF8030005D03A003100200013F0B7
:103AA00008F800252800F8BC08BC184770B50E00BF
:103AB0000125FFF70CFA04000CD0E0680621426AE9
:103AC000200012F0F5FF020004D03100200012F0B7
:103AD000EFFF0025280070BC08BC1847F8B50E00A1
:103AE00017000125FFF7F3F904000DD0E06803216A
:103AF000426A200012F0DCFF030005D03A003100DA
:103B0000200012F0D6FF00252800F8BC08BC18479A
:103B100070B50E000125FFF7DAF904000CD0E0685B
:103B20001321426A200012F0C3FF020004D03100CA
:103B3000200012F0BDFF0025280070BC08BC18470B
:103B400070B50E000125FFF7C2F904000CD0E06843
:103B50001421426A200012F0ABFF020004D03100B1
:103B6000200012F0A5FF0025280070BC08BC1847F3
:103B7000F8B50E0017000125FFF7A9F904000DD0D4
:103B8000E0681521426A200012F092FF030005D080
:103B90003A003100200012F08CFF00252800F8BC0C
:103BA00008BC1847F8B50E0017000125FFF78FF97C
:103BB00004000DD0E0681021426A200012F078FF66
:103BC000030005D03A003100200012F072FF0025FA
:103BD0002800F8BC08BC1847F8B50E0017000125EE
:103BE000FFF775F904000DD0E0680421426A200057
:103BF00012F05EFF030005D03A003100200012F001
:103C000058FF00252800F8BC08BC184770B506000E
:103C100093480124407CFFF75AF905000CD0E8686E
:103C20000221426A280012F043FF020004D0310052
:103C3000280012F03DFF0024200070BC08BC18478B
:103C400070B5060086480124407CFFF740F9050066
:103C50000CD0E8680921426A280012F029FF02000E
:103C600004D03100280012F023FF0024200070BC93
:103C700008BC1847F8B5060079480F00407C0124BD
:103C8000FFF725F905000DD0E8680A21426A2800EF
:103C900012F00EFF030005D03A003100280012F0A8
:103CA00008FF00242000F8BC08BC1847F8B506003F
:103CB0006B480F00407C0124FFF709F905000DD087
:103CC000E8680B21426A280012F0F2FE030005D0DA
:103CD0003A003100280012F0ECFE00242000F8BC6D
:103CE00008BC184770B506005D480124407CFFF70A
:103CF000EEF805000CD0E8680621426A280012F0B0
:103D0000D7FE020004D03100280012F0D1FE0024BA
:103D1000200070BC08BC1847F8B5060050480F00DA
:103D2000407C0124FFF7D3F805000DD0E86803219B
:103D3000426A280012F0BCFE030005D03A003100B0
:103D4000280012F0B6FE00242000F8BC08BC18477A
:103D500070B5060042480124407CFFF7B8F8050022
:103D60000CD0E8681321426A280012F0A1FE02007C
:103D700004D03100280012F09BFE0024200070BC0B
:103D800008BC184770B5060035480124407CFFF791
:103D90009EF805000CD0E8681421426A280012F051
:103DA00087FE020004D03100280012F081FE0024BA
:103DB000200070BC08BC1847F8B5060028480F0062
:103DC000407C0124FFF783F805000DD0E868152139
:103DD000426A280012F06CFE030005D03A00310060
:103DE000280012F066FE00242000F8BC08BC18472A
:103DF000F8B506001A480F00407C0124FFF767F869
:103E000005000DD0E8681021426A280012F050FE2B
:103E1000030005D03A003100280012F04AFE0024C9
:103E20002000F8BC08BC1847F8B506000C480F0085
:103E3000407C0124FFF74BF805000DD0E868042111
:103E4000426A280012F034FE030005D03A00310027
:103E5000280012F02EFE00242000F8BC08BC1847F1
:103E6000884D85A0FFB50D001D490400087881B07C
:103E70000BAE401C0006C0CE000E0328087007D908
:103E8000184800681849884202D9FE20FDF742FA16
:103E900000200100020003000FC40FC4206003983B
:103EA000203C2074002D677700D0A5610A9800217E
:103EB00080192C388008800001600C494162049907
:103EC00081620B4960600878401C0870200000F097
:103ED00015FA00F080F905B0F0BC08BC18470000E6
:103EE000940000A0A00000A0A0BB0D003C6D01004C
:103EF000A40000A0002213000CC0704770B504009D
:103F000013F078F80F4D6878401C6870206800281E
:103F10000AD02878401C287000202071200004F06E
:103F200063FD00F058F901E0012020716878401E1F
:103F30000006000E687001D113F068F870BC08BC70
:103F400018470000A40000A010B5040013F052F8B8
:103F50002079002806D14821200004F0DBFC10BCA9
:103F600008BC184700202071044840780028F6D18A
:103F700013F04CF810BC08BC18470000A40000A0C7
:103F8000F8B504000D0013F035F8134E3068134FE8
:103F900045192079002813D12A004821200004F077
:103FA000D7FC13F027F83068281A002808DC787846
:103FB000002801D113F02AF8F8BC08BC01201847EA
:103FC000002020717878002801D113F01FF8F8BC88
:103FD00008BC002018470000A00000A0A40000A01A
:103FE00010B513F007F816490868401C0860154919
:103FF0000968401A144903D4087801221043087054
:10400000124A1078002808D0401E0006000E1070DA
:1040100003D108780422104308700D480468002C6E
:1040200005D0606812F042FD2468002CF9D10948DF
:104030004078002801D112F0E9FF10BC08BC1847F5
:10404000A00000A09C0000A0A80000A0AA0000A062
:10405000C40000A0A40000A00249020008680A6091
:1040600070470000980000A0034900200870034931
:104070000870034908607047890100A0880100A00A
:104080008C0100A070B505000C0012F0B3FFA07CFD
:104090002843A074607CC008012809D1E07CA17C81
:1040A000014205D0200000F0BBF870BC08BC1847E6
:1040B000044840780028F8D112F0A8FF70BC08BC72
:1040C00018470000A40000A070B5134D0400287824
:1040D000401C287012F08EFF6878104E401C6870EB
:1040E0003068817C214204D10821C474417412F0EB
:1040F0000DFF30680021847C81742878401E287070
:104100006878401E0006000E687001D112F07EFF34
:10411000200070BC08BC1847A40000A0B00000A09C
:1041200070B50D000D4904000878401C087012F0AD
:1041300061FFA068002808D14021200004F0EAFBBC
:1041400012F058FFA0680028F6D02900200004F0E3
:1041500086FC00F040F870BC08BC1847A40000A022
:104160000E4870470E4870470E4870470E4870471B
:104170000E4A017F1268904201D10D480178080073
:104180007047002805D109480068002801D109A01E
:10419000704780697047094870470000F877010050
:1041A0000678010010780100F4770100B00000A04B
:1041B000AA0000A049646C6500000000BD8C0000EE
:1041C000FD484078002805D110B512F01FFF10BC43
:1041D00008BC1847704710B5F74C2078401E000601
:1041E000000E207010D112F005FFF448007800286E
:1041F00005D00120207012F089FE00202070607828
:10420000002801D112F002FF10BC08BC18478268D8
:1042100006CA002900D04A60116000218160704701
:10422000F8B582680024002A05D006CA002900D00B
:104230004A6011608460417CDF4D8907890F4174B9
:1042400016D1DF4F3E68002E03D0037C317C9942AB
:1042500016D238602878002805D10120287012F085
:1042600055FE2C7004E0D5480222017811430170FC
:104270006878002801D112F0C9FEF8BC08BC1847C4
:104280008642E7D09942F3D1010009680029EFD0B6
:104290000A7C9A42ECD1B142F7D1DAE770B5C84D49
:1042A0002A68C54C002A03D0037C117C994217D29E
:1042B00028602078002806D10120207012F026FE08
:1042C0000020207004E0BD490222087810430870E5
:1042D0006078002801D112F099FE70BC08BC184724
:1042E0008242E6D09942F3D1010009680029EFD05B
:1042F0000E7C9E42ECD19142F7D1D9E710B5027CF9
:10430000B04904000868002804D0037C934201D916
:104310000100F7E76161206000280C6006D044616D
:10432000007C0021904200D1617F2177607C0028D1
:1043300004D112F05FFE2000FFF772FF10BC08BC32
:104340001847026841690A600168002901D0406984
:1043500048617047F8B59849002048709A4800684D
:10436000002808D0016A002905D00968002902D078
:10437000406812F09CFB9548914F0078FB2600287E
:1043800037D09348904D007829688C4C0877207876
:1043900040072ED512F02EFE20782D683040207078
:1043A00012F034FE002D22D02C68002C1FD0297C66
:1043B000207C88421BD12068002804D0027C8A42DD
:1043C00001D10400F7E712F015FE3868A84201D1C8
:1043D0002868386069692868086041616C612068F4
:1043E0000028286000D045612560607F207712F0AA
:1043F0000DFE386800282AD0764E12F0FBFD3C688E
:10440000002C24D0657C002D21D0680710D572497E
:10441000E0680968411A002906DC2000FFF700FF68
:10442000607C002813D003E03168411A00D5306069
:10443000FB200540102D05D1A06880684068407CB5
:10444000002804D02068386012F0E0FDD5E7624E05
:1044500012F0D0FD594C2078C00757D012F0D6FD8D
:1044600012F0C8FD207840084000207030687D219F
:10447000490140185749594C594D002708600CE034
:104480002060016829600774876012F0BFFD206812
:10449000406812F00BFB12F0ADFD2868002808D030
:1044A00081683268891A0029EADD01004948896873
:1044B000016012F0ABFD43480468002CC8D0454DA4
:1044C0003F4F12F097FD3868002804D0207C3968EF
:1044D000097C8842BCD3607C400711D5E068316814
:1044E000401A002807DC2000FFF79AFE12F082FD38
:1044F000607C0028ACD0E0682968411A00D52860AB
:1045000012F084FD2468002CDBD1A1E704F054FAFA
:10451000032806DD30683349884202D9FE20FCF7C3
:10452000F9FE2648FD2201781140017024480168F7
:10453000002921D00168497C0068002905D08068E5
:10454000806841682048016001E01F4908601E4CF6
:104550002268106A002805D04168002902D05068FE
:1045600012F0A5FA21681A48097F017001781748EE
:104570000170F8BC08BC18471449002008701449A1
:104580000870114908600C49087012F03FFDFCF7F3
:1045900074FCF8BC08BC184770B5074D2C78601C3B
:1045A000287012F0B3FC2C706878002801D112F04A
:1045B0002DFD70BC08BC1847A40000A0A80000A0F6
:1045C000B40000A0AC0000A0B00000A0AB0000A0B0
:1045D000AA0000A09C0000A0A00000A0BC0000A0B9
:1045E000B80000A0A0BB0D0070474E48012101702B
:1045F0004078002805D110B512F008FD10BC08BCA9
:104600001847704747490878401E0870704745486A
:104610000078704710B5434C2178491C21706178AF
:10462000491C617012F042FA6078401E6070207878
:10463000012808D13C490978002904D012F05EFC19
:1046400010BC08BC1847401E207010BC08BC18479E
:1046500070B5344C05002078401C207012F0D6FC58
:1046600012F029FA12F0C6FC2078012808D12E4950
:104670000978002904D012F041FC70BC08BC18472E
:10468000401E207070BC08BC184770B5254D040052
:104690002878002808D012F0B9FC24480168091BCA
:1046A000FCD470BC08BC184712F0A4FC20480421BC
:1046B0000068C46041742C78601C287012F026FCDD
:1046C0002C7068780028ECD112F0A0FC70BC08BCFB
:1046D000184770B5154D2968124E441830780028D7
:1046E00007D012F093FC2868001BFCD470BC08BCF7
:1046F000184712F07FFC0E4804210068C460417422
:104700003478601C307012F001FC3470707800282E
:10471000ECD112F07BFC70BC08BC18470449096856
:1047200008627047A40000A0A80000A0A00000A09C
:10473000B00000A070B40D00002116001C000A009B
:104740000B000EC00EC01838C6604460057570BC02
:104750007047000070B504000E480D000178491C38
:10476000017012F047FCE168A068884209D1382145
:10477000200004F0CFF812F03DFCE168A068884208
:10478000F5D02900200004F045F9FFF724FD70BCA6
:1047900008BC1847A40000A0F8B506003548046816
:1047A000002C13D0344D0027207A00280BD06068ED
:1047B000B04208D12878401C28702000277204F0ED
:1047C00013F9FFF708FDE468002CEDD1F8BC08BC34
:1047D000184710B504002948294908600020010045
:1047E000020003000FC4103C12F004FC21480168D1
:1047F000E160046020484078002801D112F006FCF6
:1048000010BC08BC184770B51B49040008781D4D42
:10481000401C0870217A2868002901D160600BE0F3
:104820006168814208D01021200004F073F8207ADA
:104830000028F8D128686060207A401C05062D0EFB
:104840002572FFF7C8FC280070BC08BC18470A4A4C
:1048500010B51178491C1170017A491E0906090E1C
:10486000017201D104F0C0F8FFF7B5FC10BC08BC20
:1048700018470000C00000A0A40000A09947000055
:10488000900100A0B00000A070B50400007C0D00F5
:1048900088421CD00F4E3078401C307012F0AAFBBA
:1048A0002000FFF74EFD7078002801D112F0AEFB1A
:1048B00020002574FFF722FD0748084900680860BA
:1048C00007480222017811430170FFF784FC70BC95
:1048D00008BC1847A40000A0AC0000A0B40000A0D1
:1048E000A80000A030B40D00002114000A000B0045
:1048F0000EC006C01438C4604560846030BC704788
:1049000070B50500007C002829D1A868002826DDA4
:10491000544909684418AC6012F06CFB524A0120FB
:1049200028741068002802D1286015600AE04E49FA
:104930008368E31A002B03DD010000680028F7D12B
:1049400028600D60494910680A688068821A00D59D
:10495000086047484078002801D112F057FB70BC2E
:1049600008BC184710B5040012F044FB207C002856
:1049700013D0002020743B48A16802683A48891A85
:10498000A1600168002908D0A14202D1216801601C
:1049900003E0080009680029F6D13548407800286E
:1049A00001D112F033FB10BC08BC1847F8B5040065
:1049B00012F020FB207C2B4F2D4D002600281DD00F
:1049C00012F018FB207C002811D02674A1683A68E8
:1049D0002548891AA1600168002908D0A14202D1A6
:1049E0002168016003E0080009680029F6D16878B1
:1049F000002801D112F00AFB12F0FCFAE068A06076
:104A0000217C002926D1002824DD39684718A760B9
:104A100012F0F0FA144A012020741068002802D124
:104A2000266014600AE010498368FB1A002B03DD3E
:104A3000010000680028F7D120600C600B49106865
:104A40000A688068821A00D508606878002806D154
:104A500012F0DCFA6878002801D112F0D7FAF8BC1D
:104A600008BC1847A00000A0B80000A09C0000A04F
:104A7000A40000A070B504000D001C2001F0F8FF98
:104A800000280AD0FB4AC560846011680023436097
:104A90000029016000D04860106070BC08BC184755
:104AA00010B5040002F0E8FE0020207502F0EBFED5
:104AB00010BC08BC184710B5040002F0DDFE002051
:104AC000207502F0E0FE02F0D7FEEA480168A1423C
:104AD00002D12168016007E0200003C80860206857
:104AE000002801D06168416002F0CDFE200001F095
:104AF000D0FF10BC08BC184770B504000D0002F0D0
:104B0000BBFE02F0C7FE012626754119A561DA4DEC
:104B100021612978002902D12069A86006E0216975
:104B2000AB680A1A181A824202DAA96002F0C4FEBF
:104B30002E7002F0A8FE70BC08BC184710B5040027
:104B400002F0A8FE001B03D410BC08BC01201847CB
:104B500010BC08BC00201847F8B5C74F02F09AFEF9
:104B6000C6498842FAD202F087FE38787C6800286D
:104B700034D0BD6802F08EFE401B2FD40026002CDE
:104B800012D0207D00280DD0256902F083FE401B45
:104B900008D4267502F077FEA168E06812F0D8F913
:104BA00002F06AFE2468EAE7B54E0025340002F000
:104BB00071FE796800290DD00A7D002A05D00A69A6
:104BC000121AA24201DA1400012509680029F3D162
:104BD000B44200D100202018B8603D7002F053FEAE
:104BE00002F058FEB968081A00D5002002F05CFEF9
:104BF000B4E7A4494868896C096D084710B5A14C11
:104C000002F061FEA16C6068096D12F0A1F9F7E78E
:104C100010B502F05FFE10BC08BC18479A487047F8
:104C200070B502F001FE05F068F8964D01204002D3
:104C3000E864964800214174012484740221C474FC
:104C4000017581754175C4750476FBF7FAFE05F0B0
:104C50006AF86C70A86805F0AFF970BC08BC18471A
:104C600030B40B6800250478A34202DB1B1B002B29
:104C700001DC280000E00019002803D044789442A9
:104C8000F1D10B6030BC704770B584B00025C066B0
:104C90000400456783692030427B0600807B6946BB
:104CA0006C3421C10292196A327B0E69586A002164
:104CB0000B0012F052F90028606001D1FF25023587
:104CC000280004B070BC08BC184710B50168040087
:104CD00040688A69002808D09068401C9060116A7A
:104CE00060684B696A4912F035F90020606010BCB9
:104CF00008BC184710B5046AA168491EA160816804
:104D0000002901D012F024F920684169491E41614F
:104D1000206801D103F0ECFE10BC08BC1847002845
:104D200002D1FF2004307047F8B50F0081690400FC
:104D30000500406F6C35401CA8606069401C6061D4
:104D4000096A68680A6A390012F003F90600C11F8F
:104D5000FD390AD07E60A868401EA8606169491EBE
:104D6000616102D1200003F0C3FE3000F8BC08BC32
:104D70001847FFB50D000668040081B00A9F58214E
:104D8000280011F0EBFC0498AF612C62E86100216F
:104D900028000222203029700274012242746986A0
:104DA0000398A886A068401CA0607069401C7061D0
:104DB000B1696068096A0A6A290012F0CAF8050038
:104DC000C11FFD3909D0A068401EA0607169491E4D
:104DD000716102D1300003F08BFE280005B0F0BCF9
:104DE00008BC1847FFB5050081B00A9F160058207F
:104DF00001F03AFE040004D105B0F0BC08BC25481F
:104E000018475821200011F0A9FC0498A7612562D9
:104E1000E0610020207020000121203001740B216E
:104E2000417466860298A086A868416F491C416754
:104E3000A8684169491C4161A968086F8969096AC4
:104E40000A6A210012F085F80400C11FFD390BD059
:104E5000A868416F491E4167A9684A69521E4A61A4
:104E6000A86801D103F044FE200005B0F0BC08BCE6
:104E700018470000CC0000A0C80000A0A0BB0D0097
:104E8000FFFFFF7FB85485A0A1280000F85485A03B
:104E90008F9F00000810000010B5029CCC60052414
:104EA0000C708B6030235A5405F0EBFA10BC08BC30
:104EB00018470078704700887047016070470068A5
:104EC000704741780278090211438278C078120451
:104ED0000A4300061043704702780100407812022E
:104EE00010438A78C97800020243100208437047D1
:104EF000017881B06B46197041785970817899704A
:104F0000C078D870009801B070470278411C0978C9
:104F10001002084370470178407800020843704748
:104F20000A0E02700A0C42700A0A8270C170704741
:104F30000170090A4170090A8170090AC17070473D
:104F40000A0A0270417070470170090A4170704787
:104F50000102090E020E090211430204120E12048C
:104F60000A430006104370476449C864704770B52F
:104F700006000C001500002904D0002D02D0604866
:104F8000FCF738F95F48C6744474857470BC08BC7B
:104F900018475C49087570475A4B58759975DA750A
:104FA00070475849087670474060006070470100BC
:104FB0000A6801208A4200D00020704700687047CC
:104FC00040687047010006C911600268416851607D
:104FD00040600060704700680860010006C9116009
:104FE0000268416851604060006070474068086036
:104FF000010006C9116002684168516040600060AC
:10500000704702680A60486002685160016070473A
:1050100002680A6048600268516001607047406839
:1050200002680A6048600268516001607047426827
:1050300011604B6818604B6843604A6070470368B2
:105040000A688B4201D1026001E04868026008688A
:10505000002801D049684160704700224A60026818
:105060000A600268002A00D051600160704723493D
:1050700010B54868896CC96C11F06AFF002801D02E
:1050800002F028FC10BC08BC184710B404784A1C75
:105090008B1C0C704478C91C147042881A704388A9
:1050A0004A1C1B0A0B708388891C137083884A1C56
:1050B0001B0A0B70C3881370C088000A887010BC6C
:1050C000704770B50C000C214843583001F0D0FCFB
:1050D00005000121200001F058FD6863280070BC24
:1050E00008BC184710B50400406B01F0D2FC20004A
:1050F00001F0CFFC10BC08BC18470000B85485A0D4
:1051000020780100F85485A0F0B504004120C001CA
:105110000B185D690026002D02DD6B1E01269E43E3
:10512000AF1BFF348134BE466B1E7F1E9F42A446D8
:105130000DDA6446646A9D006D182D18ED680C2622
:1051400075436559954210D05B1E9F42F3DB734651
:105150005B1E28D46446646A9D006D182D18EE68A5
:105160000C277E43A65996420AD19A005118081876
:10517000C0680C214843001D2058F0BC08BC1847EB
:10518000AD680C267543655995420AD19A005118AD
:10519000081880680C214843001D2058F0BC08BC4A
:1051A00018479B1ED8D5F0BC08BC00201847FFB597
:1051B00085B0CF6907980D002C214843059AB900A6
:1051C0008418FF34B13408190490C668002E18D131
:1051D000582001F049FC060000D112E058213000AF
:1051E00011F0BCFA002F01D001202060B7600798B1
:1051F0003100F060002070650498C660201DFFF744
:105200000EFF0020C043002E3AD02A686968914200
:1052100036DB6A6A296A706D514300908123081851
:105220009B017065E8180390C16B002927D0686A5C
:10523000814200D801000191316D102909D00199F6
:1052400080000F0138184830029001F00DFC040076
:1052500001D1002411E00299200011F07FFA306D95
:105260006064306D401C3065606C800080190461A2
:1052700020004830E060C019A062002C04D100205A
:1052800009B0F0BC08BC1847059800222900FFF7B8
:105290003BFF2060059802222900FFF735FF606080
:1052A000059801222900FFF72FFFA0600198002137
:1052B000002816DD4127BF01039A0800D26B8A42FD
:1052C00000DC501E80004619F26FE36808011A5096
:1052D000F219D26BE368001D1A500198491C8142F3
:1052E000EADB2061089860610098A061079860621D
:1052F000286AE061686A20622868E0626868206362
:10530000A8686063E868A0632869E063A86920640E
:1053100009B0F0BC08BC0020184710B490790C28E4
:1053200070D202A31B5CDB189F4400002A3C4E7025
:1053300082A3B5C5EBD70619886F022862D0282250
:10534000424354182834401C886708000EC80EC415
:105350000EC80EC40FC80FC410BC00207047886F61
:1053600000284FD0401E2822886750434418283414
:1053700008000ECC0EC00ECC0EC01ECC1EC00EE01F
:105380001079012805D0022805D0042805D190689D
:1053900004E0107A02E0108900E00020486110BCAF
:1053A000002070471079012805D0022806D0042873
:1053B00007D1906806E00820105603E00820105E30
:1053C00000E000200860EAE708680028107910DA99
:1053D000012804D0022805D0042808D105E00820BF
:1053E000105611E00820105E0EE090680CE00020DE
:1053F0000AE0012804D0022805D00428F7D1F4E7F8
:10540000107A01E08EE010894860C8E71079012821
:1054100005D0022806D0042807D1906806E00820AD
:10542000105603E00820105E00E000208860B6E718
:1054300088680028107910DA012804D0022805D0E5
:10544000042808D105E00820105610E00820105E5E
:105450000DE090680BE0002009E0012804D002284C
:1054600004D00428F7D1F4E7107A00E01089C8606E
:1054700095E71079012805D0022806D0042807D125
:10548000906806E00820105603E00820105E00E057
:105490000020086183E71079012805D0022805D093
:1054A000042805D1906804E0107A02E0108900E039
:1054B0000020886173E71079012805D0022805D003
:1054C000042805D1906804E0107A02E0108900E019
:1054D00000202028086298D924E01079012805D0FE
:1054E000022805D0042805D1906804E0107A02E073
:1054F000108900E00020486201218902884284D995
:1055000010E01079012805D0022805D0042805D123
:10551000906804E0107A02E0108900E00020002882
:10552000C86184D110BC0020C0437047F0B410792A
:1055300000286FD0012805D0022805D0042805D105
:10554000976804E0177A02E0178900E0002796794F
:10555000412581220123ED0192019B028A184C19F9
:10556000002E17D0012E37D0022E41D00A2E6CD13A
:105570006068002F07D000284CD101206060A0682F
:10558000401CA06003E0002844D0401E6060F0BCD6
:1055900001207047A668012E57D8022802D8486912
:1055A0000004C719D06B984234D280004018C767F6
:1055B0006069002803D08000401840198068D46BCF
:1055C0004123A4009B016118C918C863D16B002056
:1055D000491CD163F0BC7047A268012A35D8022863
:1055E00002D848690004C7192760F0BC0020704742
:1055F000A668012E29D8022802D848690004C719D4
:105600002068B84221D84126B601D36B0125AD02EE
:10561000AB4203D3F0BC0020C04370479B005B1833
:10562000D86763694125ED01002B03D09B005B180F
:105630005B199B68D56B401CAD006D18AD19EB6311
:10564000D36B5B1CB842D363DFD9F0BC002070473A
:10565000F0B5060010790F0083B0012805D00228AC
:1056600005D0042805D1906804E0107A02E0108982
:1056700000E0002091794122D2010839BD180529A6
:1056800051D202A35B5CDB189F440000596103699F
:105690004F000006000E0290F86F00906869022823
:1056A00046D03400FF34A13461892089FF36813629
:1056B00081421CD11821484301F0D6F900280190FD
:1056C00036D022890C20716A4243019810F0E6FF1F
:1056D00021890C2041430198081811F03FF8706AA5
:1056E00001F0D7F901987062208940002081686933
:1056F00061898200FE4B401CD2196861D1506089DB
:105700000C22716A431C50436381029B081803609A
:10571000009941606969491E81600298012802D19F
:10572000A089401CA081002420E06869002802D1E3
:105730000024E4431AE0401E0024686116E00300E0
:10574000002239003000FFF732FD04000EE00300B4
:10575000012239003000FFF72AFD040006E00300B3
:10576000022239003000FFF722FD04003800E14931
:105770007C3010F0F3FF200003B0F0BC08BC1847E9
:1057800000207047F0B506000C001700182085B007
:1057900001F06AF93100FF31813104914862002142
:1057A0000A000B000D002EC006C0FF200221A93008
:1057B000002581532C2068438019FF30B530FFF756
:1057C000F3FB6D1C032DF5D30498CB4D84602800AA
:1057D00001F04AF90028009008D10498406A01F0CD
:1057E00058F905B0F0BC08BCC4481847290010F0AF
:1057F000B5FFE5190027281B002844DD20786B46FB
:10580000641C0107890F597201090F29997211D17E
:1058100001200190281B022835DB2178641C601CC4
:10582000197221782A1A9972197A8A422BDB0C187C
:10583000039029E08007800F6B460197187223D0F0
:1058400001280ED0022814D003281CD1042018727D
:10585000281B042817DB2000FFF733FB241D0390CF
:1058600012E0281B01280EDB20786B46641C18739D
:105870000AE0281B022806DB2000FFF74CFB6B46E2
:10588000A41C988100E03C00002C27D0019800283F
:1058900024D16B46587A9A4901AA80000B58009986
:1058A000300011F057FB002818D1AC42A3D100986A
:1058B0004121C9014018416900290FD140680028E1
:1058C0000CD111214901012071180877009801F0CD
:1058D000E0F805B0F0BC08BC002018470498406A06
:1058E00001F0D7F8009801F0D4F805B0F0BC08BC7E
:1058F000FF2011301847F1B5002084B002900498C1
:10590000407A012801D002285DD1049CFF34813403
:105910006068002857D10498406900285CD004F0E2
:105920005EFF7848017A491E01720499002048619F
:10593000049908720498002801904DD00394E068FF
:10594000002801D001F0A5F803980069002801D0D3
:1059500001F09FF803988068002801D001F099F8C1
:10596000002000902C214843019900264718FF375A
:10597000B137B000C019C568002D0FD0286D0024C4
:10598000002808D9A0004019006901F082F8286DAC
:10599000641CA042F6D8280001F07BF8761C082E83
:1059A000E7D30098401C03280090DBD3039840699C
:1059B000002801D001F06DF852480199FFF73FFB34
:1059C000019801F066F804984069002804D0029814
:1059D00005B0F0BC08BC18470120029005B0F0BC2F
:1059E00008BC184710B5C06801F0B8FF10BC08BC6F
:1059F0001847F8B5C46805002000FF3081304168C1
:105A00000600491E41602000FFF775FF002809D1FC
:105A1000607A032801D0042804D16868002804D0E3
:105A200002206072F8BC08BC184700220092628B0A
:105A3000F1682000002300F088FDF8BC08BC18477E
:105A4000F1B586B00698C4680494FF348134606868
:105A5000401E60600498FFF74EFF002871D1049843
:105A6000407A01286ED002286CD00020059006985C
:105A70004068002867D1607E02287ED10698002702
:105A8000456B2048067C28786169F8400978C00792
:105A9000C00FF940C907C90F884209D03900E03169
:105AA00002910390E169002902D002A811F050FA96
:105AB0007F1C082FE7D302276069C35D032B14D92D
:105AC00019000020062805D2AA788A420DD0801C31
:105AD0000628FAD30020002B07D002930390E16937
